{"abi":[{"type":"function","name":"add","inputs":[{"name":"encryptedValue","type":"tuple","internalType":"struct Euint32","components":[{"name":"ctHash","type":"uint256","internalType":"uint256"},{"name":"securityZone","type":"uint8","internalType":"uint8"},{"name":"utype","type":"uint8","internalType":"uint8"},{"name":"signature","type":"bytes","internalType":"bytes"}]}],"outputs":[],"stateMutability":"nonpayable"},{"type":"function","name":"decryptCounter","inputs":[],"outputs":[],"stateMutability":"nonpayable"},{"type":"function","name":"decryptionComplete","inputs":[],"outputs":[{"name":"","type":"bool","internalType":"bool"}],"stateMutability":"view"},{"type":"function","name":"getDecryptedValue","inputs":[],"outputs":[{"name":"","type":"uint32","internalType":"uint32"}],"stateMutability":"view"},{"type":"function","name":"lastDecryptedValue","inputs":[],"outputs":[{"name":"","type":"uint32","internalType":"uint32"}],"stateMutability":"view"},{"type":"error","name":"InvalidEncryptedInput","inputs":[{"name":"got","type":"uint8","internalType":"uint8"},{"name":"expected","type":"uint8","internalType":"uint8"}]},{"type":"error","name":"SecurityZoneOutOfBounds","inputs":[{"name":"value","type":"int32","internalType":"int32"}]}],"bytecode":{"object":"0x6080604052348015600e575f5ffd5b5061108e8061001c5f395ff3fe608060405234801561000f575f5ffd5b5060043610610055575f3560e01c80634c94db2e14610059578063562650421461007757806384ff25c614610095578063a9c5936f146100b1578063b2550e07146100bb575b5f5ffd5b6100616100d9565b60405161006e91906108ea565b60405180910390f35b61007f6100ec565b60405161008c9190610921565b60405180910390f35b6100af60048036038101906100aa919061096d565b610153565b005b6100b961017c565b005b6100c36101cb565b6040516100d09190610921565b60405180910390f35b600160049054906101000a900460ff1681565b5f600160049054906101000a900460ff1661013c576040517f08c379a000000000000000000000000000000000000000000000000000000000815260040161013390610a0e565b60405180910390fd5b60015f9054906101000a900463ffffffff16905090565b5f6101668261016190610c6a565b6101e0565b90506101735f5482610253565b5f819055505050565b6101865f5461029c565b6101905f546102c2565b60015f6101000a81548163ffffffff021916908363ffffffff16021790555060018060046101000a81548160ff021916908315150217905550565b60015f9054906101000a900463ffffffff1681565b5f5f600490508060ff16836040015160ff161461023a578260400151816040517f67cf3071000000000000000000000000000000000000000000000000000000008152600401610231929190610c8b565b60405180910390fd5b61024b610246846102d3565b610315565b915050919050565b5f61025d836103ac565b61026d5761026a5f6103bd565b92505b610276826103ac565b610286576102835f6103bd565b91505b6102946004848460086103cf565b905092915050565b6102a5816103ac565b6102b5576102b25f6103bd565b90505b6102be816104be565b5050565b5f6102cc82610543565b9050919050565b6102db6108a5565b6040518060800160405280835f01518152602001836020015160ff168152602001600460ff16815260200183606001518152509050919050565b5f73020000000000000000000000000000000000008073ffffffffffffffffffffffffffffffffffffffff166327f9c76283336040518363ffffffff1660e01b8152600401610365929190610dcf565b6020604051808303815f875af1158015610381573d5f5f3e3d5ffd5b505050506040513d601f19601f820116820180604052508101906103a59190610e11565b9050919050565b5f6103b6826105d7565b9050919050565b5f6103c8825f6105e3565b9050919050565b5f73020000000000000000000000000000000000008073ffffffffffffffffffffffffffffffffffffffff16631888debd868461040c88886105fd565b5f67ffffffffffffffff81111561042657610425610a40565b5b6040519080825280602002602001820160405280156104545781602001602082028036833780820191505090505b506040518563ffffffff1660e01b81526004016104749493929190610f57565b6020604051808303815f875af1158015610490573d5f5f3e3d5ffd5b505050506040513d601f19601f820116820180604052508101906104b49190610e11565b9050949350505050565b5f73020000000000000000000000000000000000008073ffffffffffffffffffffffffffffffffffffffff16630828982783336040518363ffffffff1660e01b815260040161050e929190610fb7565b5f604051808303815f87803b158015610525575f5ffd5b505af1158015610537573d5f5f3e3d5ffd5b50505050819050919050565b5f73020000000000000000000000000000000000008073ffffffffffffffffffffffffffffffffffffffff1663f6bc7f3f836040518263ffffffff1660e01b81526004016105919190610fde565b602060405180830381865afa1580156105ac573d5f5f3e3d5ffd5b505050506040513d601f19601f820116820180604052508101906105d09190610e11565b9050919050565b5f5f8214159050919050565b5f5f6105f184600485610697565b90508091505092915050565b60605f600267ffffffffffffffff81111561061b5761061a610a40565b5b6040519080825280602002602001820160405280156106495781602001602082028036833780820191505090505b50905083815f815181106106605761065f610ff7565b5b602002602001018181525050828160018151811061068157610680610ff7565b5b6020026020010181815250508091505092915050565b5f73020000000000000000000000000000000000008073ffffffffffffffffffffffffffffffffffffffff16631888debd84601a5f67ffffffffffffffff8111156106e5576106e4610a40565b5b6040519080825280602002602001820160405280156107135781602001602082028036833780820191505090505b5061072a898960ff166107258a610792565b6107e9565b6040518563ffffffff1660e01b81526004016107499493929190610f57565b6020604051808303815f875af1158015610765573d5f5f3e3d5ffd5b505050506040513d601f19601f820116820180604052508101906107899190610e11565b90509392505050565b5f5f8260030b12156107db57816040517f8f568bf80000000000000000000000000000000000000000000000000000000081526004016107d2919061103f565b60405180910390fd5b8163ffffffff169050919050565b60605f600367ffffffffffffffff81111561080757610806610a40565b5b6040519080825280602002602001820160405280156108355781602001602082028036833780820191505090505b50905084815f8151811061084c5761084b610ff7565b5b602002602001018181525050838160018151811061086d5761086c610ff7565b5b602002602001018181525050828160028151811061088e5761088d610ff7565b5b602002602001018181525050809150509392505050565b60405180608001604052805f81526020015f60ff1681526020015f60ff168152602001606081525090565b5f8115159050919050565b6108e4816108d0565b82525050565b5f6020820190506108fd5f8301846108db565b92915050565b5f63ffffffff82169050919050565b61091b81610903565b82525050565b5f6020820190506109345f830184610912565b92915050565b5f604051905090565b5f5ffd5b5f5ffd5b5f5ffd5b5f608082840312156109645761096361094b565b5b81905092915050565b5f6020828403121561098257610981610943565b5b5f82013567ffffffffffffffff81111561099f5761099e610947565b5b6109ab8482850161094f565b91505092915050565b5f82825260208201905092915050565b7f44656372797074696f6e206e6f7420636f6d706c6574650000000000000000005f82015250565b5f6109f86017836109b4565b9150610a03826109c4565b602082019050919050565b5f6020820190508181035f830152610a25816109ec565b9050919050565b5f5ffd5b5f601f19601f8301169050919050565b7f4e487b71000000000000000000000000000000000000000000000000000000005f52604160045260245ffd5b610a7682610a30565b810181811067ffffffffffffffff82111715610a9557610a94610a40565b5b80604052505050565b5f610aa761093a565b9050610ab38282610a6d565b919050565b5f5ffd5b5f819050919050565b610ace81610abc565b8114610ad8575f5ffd5b50565b5f81359050610ae981610ac5565b92915050565b5f60ff82169050919050565b610b0481610aef565b8114610b0e575f5ffd5b50565b5f81359050610b1f81610afb565b92915050565b5f5ffd5b5f5ffd5b5f67ffffffffffffffff821115610b4757610b46610a40565b5b610b5082610a30565b9050602081019050919050565b828183375f83830152505050565b5f610b7d610b7884610b2d565b610a9e565b905082815260208101848484011115610b9957610b98610b29565b5b610ba4848285610b5d565b509392505050565b5f82601f830112610bc057610bbf610b25565b5b8135610bd0848260208601610b6b565b91505092915050565b5f60808284031215610bee57610bed610a2c565b5b610bf86080610a9e565b90505f610c0784828501610adb565b5f830152506020610c1a84828501610b11565b6020830152506040610c2e84828501610b11565b604083015250606082013567ffffffffffffffff811115610c5257610c51610ab8565b5b610c5e84828501610bac565b60608301525092915050565b5f610c753683610bd9565b9050919050565b610c8581610aef565b82525050565b5f604082019050610c9e5f830185610c7c565b610cab6020830184610c7c565b9392505050565b610cbb81610abc565b82525050565b610cca81610aef565b82525050565b5f81519050919050565b5f82825260208201905092915050565b8281835e5f83830152505050565b5f610d0282610cd0565b610d0c8185610cda565b9350610d1c818560208601610cea565b610d2581610a30565b840191505092915050565b5f608083015f830151610d455f860182610cb2565b506020830151610d586020860182610cc1565b506040830151610d6b6040860182610cc1565b5060608301518482036060860152610d838282610cf8565b9150508091505092915050565b5f73ffffffffffffffffffffffffffffffffffffffff82169050919050565b5f610db982610d90565b9050919050565b610dc981610daf565b82525050565b5f6040820190508181035f830152610de78185610d30565b9050610df66020830184610dc0565b9392505050565b5f81519050610e0b81610ac5565b92915050565b5f60208284031215610e2657610e25610943565b5b5f610e3384828501610dfd565b91505092915050565b7f4e487b71000000000000000000000000000000000000000000000000000000005f52602160045260245ffd5b60208110610e7a57610e79610e3c565b5b50565b5f819050610e8a82610e69565b919050565b5f610e9982610e7d565b9050919050565b610ea981610e8f565b82525050565b5f81519050919050565b5f82825260208201905092915050565b5f819050602082019050919050565b5f610ee38383610cb2565b60208301905092915050565b5f602082019050919050565b5f610f0582610eaf565b610f0f8185610eb9565b9350610f1a83610ec9565b805f5b83811015610f4a578151610f318882610ed8565b9750610f3c83610eef565b925050600181019050610f1d565b5085935050505092915050565b5f608082019050610f6a5f830187610c7c565b610f776020830186610ea0565b8181036040830152610f898185610efb565b90508181036060830152610f9d8184610efb565b905095945050505050565b610fb181610abc565b82525050565b5f604082019050610fca5f830185610fa8565b610fd76020830184610dc0565b9392505050565b5f602082019050610ff15f830184610fa8565b92915050565b7f4e487b71000000000000000000000000000000000000000000000000000000005f52603260045260245ffd5b5f8160030b9050919050565b61103981611024565b82525050565b5f6020820190506110525f830184611030565b9291505056fea264697066735822122018eebe84d38fcd6183b1dd9f6128d76b0633049cd5d4f9fd3904c2c4f9f78f3e64736f6c634300081b0033","linkReferences":{}},"methodIdentifiers":{"add((uint256,uint8,uint8,bytes))":"84ff25c6","decryptCounter()":"a9c5936f","decryptionComplete()":"4c94db2e","getDecryptedValue()":"56265042","lastDecryptedValue()":"b2550e07"},"id":0}