{"abi":[{"type":"constructor","inputs":[{"name":"q","type":"string","internalType":"string"},{"name":"optList","type":"string[]","internalType":"string[]"}],"stateMutability":"nonpayable"},{"type":"function","name":"decryptTally","inputs":[],"outputs":[],"stateMutability":"nonpayable"},{"type":"function","name":"decryptedTally","inputs":[{"name":"","type":"uint256","internalType":"uint256"}],"outputs":[{"name":"","type":"uint32","internalType":"uint32"}],"stateMutability":"view"},{"type":"function","name":"getDecryptedTally","inputs":[],"outputs":[{"name":"","type":"uint32[]","internalType":"uint32[]"}],"stateMutability":"view"},{"type":"function","name":"init","inputs":[],"outputs":[],"stateMutability":"nonpayable"},{"type":"function","name":"options","inputs":[{"name":"","type":"uint256","internalType":"uint256"}],"outputs":[{"name":"","type":"string","internalType":"string"}],"stateMutability":"view"},{"type":"function","name":"query","inputs":[],"outputs":[{"name":"","type":"string","internalType":"string"}],"stateMutability":"view"},{"type":"function","name":"tallyDecryptionComplete","inputs":[],"outputs":[{"name":"","type":"bool","internalType":"bool"}],"stateMutability":"view"},{"type":"function","name":"vote","inputs":[{"name":"encOption","type":"tuple","internalType":"struct Euint8","components":[{"name":"ctHash","type":"uint256","internalType":"uint256"},{"name":"securityZone","type":"uint8","internalType":"uint8"},{"name":"utype","type":"uint8","internalType":"uint8"},{"name":"signature","type":"bytes","internalType":"bytes"}]}],"outputs":[],"stateMutability":"nonpayable"},{"type":"error","name":"InvalidEncryptedInput","inputs":[{"name":"got","type":"uint8","internalType":"uint8"},{"name":"expected","type":"uint8","internalType":"uint8"}]},{"type":"error","name":"SecurityZoneOutOfBounds","inputs":[{"name":"value","type":"int32","internalType":"int32"}]}],"bytecode":{"object":"0x608060405263ffffffff60035f6101000a81548163ffffffff021916908363ffffffff1602179055506005600360046101000a81548160ff021916908360ff16021790555034801561004f575f5ffd5b50604051612219380380612219833981810160405281019061007191906103f5565b600360049054906101000a900460ff1660ff16815111156100c7576040517f08c379a00000000000000000000000000000000000000000000000000000000081526004016100be906104c5565b60405180910390fd5b815f90816100d591906106f3565b5080600190805190602001906100ec9291906100f4565b5050506107c2565b828054828255905f5260205f2090810192821561013a579160200282015b8281111561013957825182908161012991906106f3565b5091602001919060010190610112565b5b509050610147919061014b565b5090565b5b8082111561016a575f8181610161919061016e565b5060010161014c565b5090565b50805461017a9061051a565b5f825580601f1061018b57506101a8565b601f0160209004905f5260205f20908101906101a791906101ab565b5b50565b5b808211156101c2575f815f9055506001016101ac565b5090565b5f604051905090565b5f5ffd5b5f5ffd5b5f5ffd5b5f5ffd5b5f601f19601f8301169050919050565b7f4e487b71000000000000000000000000000000000000000000000000000000005f52604160045260245ffd5b610225826101df565b810181811067ffffffffffffffff82111715610244576102436101ef565b5b80604052505050565b5f6102566101c6565b9050610262828261021c565b919050565b5f67ffffffffffffffff821115610281576102806101ef565b5b61028a826101df565b9050602081019050919050565b8281835e5f83830152505050565b5f6102b76102b284610267565b61024d565b9050828152602081018484840111156102d3576102d26101db565b5b6102de848285610297565b509392505050565b5f82601f8301126102fa576102f96101d7565b5b815161030a8482602086016102a5565b91505092915050565b5f67ffffffffffffffff82111561032d5761032c6101ef565b5b602082029050602081019050919050565b5f5ffd5b5f61035461034f84610313565b61024d565b905080838252602082019050602084028301858111156103775761037661033e565b5b835b818110156103be57805167ffffffffffffffff81111561039c5761039b6101d7565b5b8086016103a989826102e6565b85526020850194505050602081019050610379565b5050509392505050565b5f82601f8301126103dc576103db6101d7565b5b81516103ec848260208601610342565b91505092915050565b5f5f6040838503121561040b5761040a6101cf565b5b5f83015167ffffffffffffffff811115610428576104276101d3565b5b610434858286016102e6565b925050602083015167ffffffffffffffff811115610455576104546101d3565b5b610461858286016103c8565b9150509250929050565b5f82825260208201905092915050565b7f746f6f206d616e79206f7074696f6e73210000000000000000000000000000005f82015250565b5f6104af60118361046b565b91506104ba8261047b565b602082019050919050565b5f6020820190508181035f8301526104dc816104a3565b9050919050565b5f81519050919050565b7f4e487b71000000000000000000000000000000000000000000000000000000005f52602260045260245ffd5b5f600282049050600182168061053157607f821691505b602082108103610544576105436104ed565b5b50919050565b5f819050815f5260205f209050919050565b5f6020601f8301049050919050565b5f82821b905092915050565b5f600883026105a67fffffffffffffffffffffffffffffffffffffffffffffffffffffffffffffffff8261056b565b6105b0868361056b565b95508019841693508086168417925050509392505050565b5f819050919050565b5f819050919050565b5f6105f46105ef6105ea846105c8565b6105d1565b6105c8565b9050919050565b5f819050919050565b61060d836105da565b610621610619826105fb565b848454610577565b825550505050565b5f5f905090565b610638610629565b610643818484610604565b505050565b5b818110156106665761065b5f82610630565b600181019050610649565b5050565b601f8211156106ab5761067c8161054a565b6106858461055c565b81016020851015610694578190505b6106a86106a08561055c565b830182610648565b50505b505050565b5f82821c905092915050565b5f6106cb5f19846008026106b0565b1980831691505092915050565b5f6106e383836106bc565b9150826002028217905092915050565b6106fc826104e3565b67ffffffffffffffff811115610715576107146101ef565b5b61071f825461051a565b61072a82828561066a565b5f60209050601f83116001811461075b575f8415610749578287015190505b61075385826106d8565b8655506107ba565b601f1984166107698661054a565b5f5b828110156107905784890151825560018201915060208501945060208101905061076b565b868310156107ad57848901516107a9601f8916826106bc565b8355505b6001600288020188555050505b505050505050565b611a4a806107cf5f395ff3fe608060405234801561000f575f5ffd5b5060043610610086575f3560e01c806397202db61161005957806397202db614610126578063a8b82db314610130578063bc11cb3f1461014e578063e1c7392a1461016a57610086565b8063247db9ad1461008a5780632c46b205146100ba578063409e2205146100d85780638857480014610108575b5f5ffd5b6100a4600480360381019061009f91906110ba565b610174565b6040516100b19190611103565b60405180910390f35b6100c26101ab565b6040516100cf919061118c565b60405180910390f35b6100f260048036038101906100ed91906110ba565b610236565b6040516100ff919061118c565b60405180910390f35b6101106102dc565b60405161011d91906111c6565b60405180910390f35b61012e6102ee565b005b6101386103f4565b6040516101459190611296565b60405180910390f35b610168600480360381019061016391906112d8565b6104c3565b005b6101726105e3565b005b60068181548110610183575f80fd5b905f5260205f209060089182820401919006600402915054906101000a900463ffffffff1681565b5f80546101b79061134c565b80601f01602080910402602001604051908101604052809291908181526020018280546101e39061134c565b801561022e5780601f106102055761010080835404028352916020019161022e565b820191905f5260205f20905b81548152906001019060200180831161021157829003601f168201915b505050505081565b60018181548110610245575f80fd5b905f5260205f20015f91509050805461025d9061134c565b80601f01602080910402602001604051908101604052809291908181526020018280546102899061134c565b80156102d45780601f106102ab576101008083540402835291602001916102d4565b820191905f5260205f20905b8154815290600101906020018083116102b757829003601f168201915b505050505081565b60075f9054906101000a900460ff1681565b60065f6102fb919061100b565b5f5f90505b6002805490508160ff1610156103435761033060055f8360ff1660ff1681526020019081526020015f2054610663565b808061033b906113b5565b915050610300565b505f5f90505b6002805490508160ff1610156103d757600661037b60055f8460ff1660ff1681526020019081526020015f2054610689565b908060018154018082558091505060019003905f5260205f2090600891828204019190066004029091909190916101000a81548163ffffffff021916908363ffffffff16021790555080806103cf906113b5565b915050610349565b50600160075f6101000a81548160ff021916908315150217905550565b606060075f9054906101000a900460ff16610444576040517f08c379a000000000000000000000000000000000000000000000000000000000815260040161043b90611427565b60405180910390fd5b60068054806020026020016040519081016040528092919081815260200182805480156104b957602002820191905f5260205f20905f905b82829054906101000a900463ffffffff1663ffffffff168152602001906004019060208260030104928301926001038202915080841161047c5790505b5050505050905090565b5f6104d6826104d190611634565b61069a565b905061051e60045f3373ffffffffffffffffffffffffffffffffffffffff1673ffffffffffffffffffffffffffffffffffffffff1681526020019081526020015f205461070d565b1561058a5761058960045f3373ffffffffffffffffffffffffffffffffffffffff1673ffffffffffffffffffffffffffffffffffffffff1681526020019081526020015f205461058460035f9054906101000a900463ffffffff1663ffffffff1661071e565b610730565b5b8060045f3373ffffffffffffffffffffffffffffffffffffffff1673ffffffffffffffffffffffffffffffffffffffff1681526020019081526020015f20819055506105df816105da600161071e565b610730565b5050565b5f5f90505b6001805490508160ff161015610660576106015f61071e565b60055f8360ff1660ff1681526020019081526020015f2081905550600261062a8260ff166107dd565b908060018154018082558091505060019003905f5260205f20015f90919091909150558080610658906113b5565b9150506105e8565b50565b61066c816107ef565b61067c576106795f61071e565b90505b61068581610800565b5050565b5f61069382610885565b9050919050565b5f5f600290508060ff16836040015160ff16146106f4578260400151816040517f67cf30710000000000000000000000000000000000000000000000000000000081526004016106eb929190611655565b60405180910390fd5b61070561070084610919565b61095b565b915050919050565b5f610717826109f2565b9050919050565b5f610729825f610a03565b9050919050565b5f5f90505b6002805490508160ff1610156107d8575f61076f8460028460ff16815481106107615761076061167c565b5b905f5260205f200154610a1d565b90505f61078582856107805f61071e565b610a66565b90506107a860055f8560ff1660ff1681526020019081526020015f205482610ac8565b60055f8560ff1660ff1681526020019081526020015f2081905550505080806107d0906113b5565b915050610735565b505050565b5f6107e8825f610b11565b9050919050565b5f6107f982610b2b565b9050919050565b5f73020000000000000000000000000000000000008073ffffffffffffffffffffffffffffffffffffffff16630828982783336040518363ffffffff1660e01b81526004016108509291906116f7565b5f604051808303815f87803b158015610867575f5ffd5b505af1158015610879573d5f5f3e3d5ffd5b50505050819050919050565b5f73020000000000000000000000000000000000008073ffffffffffffffffffffffffffffffffffffffff1663f6bc7f3f836040518263ffffffff1660e01b81526004016108d3919061171e565b602060405180830381865afa1580156108ee573d5f5f3e3d5ffd5b505050506040513d601f19601f82011682018060405250810190610912919061174b565b9050919050565b610921611030565b6040518060800160405280835f01518152602001836020015160ff168152602001600260ff16815260200183606001518152509050919050565b5f73020000000000000000000000000000000000008073ffffffffffffffffffffffffffffffffffffffff166327f9c76283336040518363ffffffff1660e01b81526004016109ab929190611846565b6020604051808303815f875af11580156109c7573d5f5f3e3d5ffd5b505050506040513d601f19601f820116820180604052508101906109eb919061174b565b9050919050565b5f6109fc82610b2b565b9050919050565b5f5f610a1184600485610b37565b90508091505092915050565b5f610a27836109f2565b610a3757610a345f6107dd565b92505b610a40826109f2565b610a5057610a4d5f6107dd565b91505b610a5e600284846018610c32565b905092915050565b5f610a7084610d21565b610a8057610a7d5f610d32565b93505b610a89836107ef565b610a9957610a965f61071e565b92505b610aa2826107ef565b610ab257610aaf5f61071e565b91505b610abf6004858585610d44565b90509392505050565b5f610ad2836107ef565b610ae257610adf5f61071e565b92505b610aeb826107ef565b610afb57610af85f61071e565b91505b610b09600484846008610c32565b905092915050565b5f5f610b1f84600285610b37565b90508091505092915050565b5f5f8214159050919050565b5f73020000000000000000000000000000000000008073ffffffffffffffffffffffffffffffffffffffff16631888debd84601a5f67ffffffffffffffff811115610b8557610b84611449565b5b604051908082528060200260200182016040528015610bb35781602001602082028036833780820191505090505b50610bca898960ff16610bc58a610e35565b610e8c565b6040518563ffffffff1660e01b8152600401610be9949392919061198f565b6020604051808303815f875af1158015610c05573d5f5f3e3d5ffd5b505050506040513d601f19601f82011682018060405250810190610c29919061174b565b90509392505050565b5f73020000000000000000000000000000000000008073ffffffffffffffffffffffffffffffffffffffff16631888debd8684610c6f8888610f48565b5f67ffffffffffffffff811115610c8957610c88611449565b5b604051908082528060200260200182016040528015610cb75781602001602082028036833780820191505090505b506040518563ffffffff1660e01b8152600401610cd7949392919061198f565b6020604051808303815f875af1158015610cf3573d5f5f3e3d5ffd5b505050506040513d601f19601f82011682018060405250810190610d17919061174b565b9050949350505050565b5f610d2b82610b2b565b9050919050565b5f610d3d825f610fe2565b9050919050565b5f73020000000000000000000000000000000000008073ffffffffffffffffffffffffffffffffffffffff16631888debd866004610d83888888610e8c565b5f67ffffffffffffffff811115610d9d57610d9c611449565b5b604051908082528060200260200182016040528015610dcb5781602001602082028036833780820191505090505b506040518563ffffffff1660e01b8152600401610deb949392919061198f565b6020604051808303815f875af1158015610e07573d5f5f3e3d5ffd5b505050506040513d601f19601f82011682018060405250810190610e2b919061174b565b9050949350505050565b5f5f8260030b1215610e7e57816040517f8f568bf8000000000000000000000000000000000000000000000000000000008152600401610e7591906119fb565b60405180910390fd5b8163ffffffff169050919050565b60605f600367ffffffffffffffff811115610eaa57610ea9611449565b5b604051908082528060200260200182016040528015610ed85781602001602082028036833780820191505090505b50905084815f81518110610eef57610eee61167c565b5b6020026020010181815250508381600181518110610f1057610f0f61167c565b5b6020026020010181815250508281600281518110610f3157610f3061167c565b5b602002602001018181525050809150509392505050565b60605f600267ffffffffffffffff811115610f6657610f65611449565b5b604051908082528060200260200182016040528015610f945781602001602082028036833780820191505090505b50905083815f81518110610fab57610faa61167c565b5b6020026020010181815250508281600181518110610fcc57610fcb61167c565b5b6020026020010181815250508091505092915050565b5f5f5f90508315610ff257600190505b5f610ffe825f86610b37565b9050809250505092915050565b5080545f825560070160089004905f5260205f209081019061102d919061105b565b50565b60405180608001604052805f81526020015f60ff1681526020015f60ff168152602001606081525090565b5b80821115611072575f815f90555060010161105c565b5090565b5f604051905090565b5f5ffd5b5f5ffd5b5f819050919050565b61109981611087565b81146110a3575f5ffd5b50565b5f813590506110b481611090565b92915050565b5f602082840312156110cf576110ce61107f565b5b5f6110dc848285016110a6565b91505092915050565b5f63ffffffff82169050919050565b6110fd816110e5565b82525050565b5f6020820190506111165f8301846110f4565b92915050565b5f81519050919050565b5f82825260208201905092915050565b8281835e5f83830152505050565b5f601f19601f8301169050919050565b5f61115e8261111c565b6111688185611126565b9350611178818560208601611136565b61118181611144565b840191505092915050565b5f6020820190508181035f8301526111a48184611154565b905092915050565b5f8115159050919050565b6111c0816111ac565b82525050565b5f6020820190506111d95f8301846111b7565b92915050565b5f81519050919050565b5f82825260208201905092915050565b5f819050602082019050919050565b611211816110e5565b82525050565b5f6112228383611208565b60208301905092915050565b5f602082019050919050565b5f611244826111df565b61124e81856111e9565b9350611259836111f9565b805f5b838110156112895781516112708882611217565b975061127b8361122e565b92505060018101905061125c565b5085935050505092915050565b5f6020820190508181035f8301526112ae818461123a565b905092915050565b5f5ffd5b5f608082840312156112cf576112ce6112b6565b5b81905092915050565b5f602082840312156112ed576112ec61107f565b5b5f82013567ffffffffffffffff81111561130a57611309611083565b5b611316848285016112ba565b91505092915050565b7f4e487b71000000000000000000000000000000000000000000000000000000005f52602260045260245ffd5b5f600282049050600182168061136357607f821691505b6020821081036113765761137561131f565b5b50919050565b7f4e487b71000000000000000000000000000000000000000000000000000000005f52601160045260245ffd5b5f60ff82169050919050565b5f6113bf826113a9565b915060ff82036113d2576113d161137c565b5b600182019050919050565b7f44656372797074696f6e206e6f7420636f6d706c6574650000000000000000005f82015250565b5f611411601783611126565b915061141c826113dd565b602082019050919050565b5f6020820190508181035f83015261143e81611405565b9050919050565b5f5ffd5b7f4e487b71000000000000000000000000000000000000000000000000000000005f52604160045260245ffd5b61147f82611144565b810181811067ffffffffffffffff8211171561149e5761149d611449565b5b80604052505050565b5f6114b0611076565b90506114bc8282611476565b919050565b5f5ffd5b6114ce816113a9565b81146114d8575f5ffd5b50565b5f813590506114e9816114c5565b92915050565b5f5ffd5b5f5ffd5b5f67ffffffffffffffff82111561151157611510611449565b5b61151a82611144565b9050602081019050919050565b828183375f83830152505050565b5f611547611542846114f7565b6114a7565b905082815260208101848484011115611563576115626114f3565b5b61156e848285611527565b509392505050565b5f82601f83011261158a576115896114ef565b5b813561159a848260208601611535565b91505092915050565b5f608082840312156115b8576115b7611445565b5b6115c260806114a7565b90505f6115d1848285016110a6565b5f8301525060206115e4848285016114db565b60208301525060406115f8848285016114db565b604083015250606082013567ffffffffffffffff81111561161c5761161b6114c1565b5b61162884828501611576565b60608301525092915050565b5f61163f36836115a3565b9050919050565b61164f816113a9565b82525050565b5f6040820190506116685f830185611646565b6116756020830184611646565b9392505050565b7f4e487b71000000000000000000000000000000000000000000000000000000005f52603260045260245ffd5b6116b281611087565b82525050565b5f73ffffffffffffffffffffffffffffffffffffffff82169050919050565b5f6116e1826116b8565b9050919050565b6116f1816116d7565b82525050565b5f60408201905061170a5f8301856116a9565b61171760208301846116e8565b9392505050565b5f6020820190506117315f8301846116a9565b92915050565b5f8151905061174581611090565b92915050565b5f602082840312156117605761175f61107f565b5b5f61176d84828501611737565b91505092915050565b61177f81611087565b82525050565b61178e816113a9565b82525050565b5f81519050919050565b5f82825260208201905092915050565b5f6117b882611794565b6117c2818561179e565b93506117d2818560208601611136565b6117db81611144565b840191505092915050565b5f608083015f8301516117fb5f860182611776565b50602083015161180e6020860182611785565b5060408301516118216040860182611785565b506060830151848203606086015261183982826117ae565b9150508091505092915050565b5f6040820190508181035f83015261185e81856117e6565b905061186d60208301846116e8565b9392505050565b7f4e487b71000000000000000000000000000000000000000000000000000000005f52602160045260245ffd5b602081106118b2576118b1611874565b5b50565b5f8190506118c2826118a1565b919050565b5f6118d1826118b5565b9050919050565b6118e1816118c7565b82525050565b5f81519050919050565b5f82825260208201905092915050565b5f819050602082019050919050565b5f61191b8383611776565b60208301905092915050565b5f602082019050919050565b5f61193d826118e7565b61194781856118f1565b935061195283611901565b805f5b838110156119825781516119698882611910565b975061197483611927565b925050600181019050611955565b5085935050505092915050565b5f6080820190506119a25f830187611646565b6119af60208301866118d8565b81810360408301526119c18185611933565b905081810360608301526119d58184611933565b905095945050505050565b5f8160030b9050919050565b6119f5816119e0565b82525050565b5f602082019050611a0e5f8301846119ec565b9291505056fea26469706673582212206ced6f9f361465e766a9b2f84b3041820e6b74f6bc620046b16cb5071a68fba664736f6c634300081b0033","linkReferences":{}},"methodIdentifiers":{"decryptTally()":"97202db6","decryptedTally(uint256)":"247db9ad","getDecryptedTally()":"a8b82db3","init()":"e1c7392a","options(uint256)":"409e2205","query()":"2c46b205","tallyDecryptionComplete()":"88574800","vote((uint256,uint8,uint8,bytes))":"bc11cb3f"},"id":1}