{"abi":[{"type":"function","name":"ACL","inputs":[],"outputs":[{"name":"","type":"address","internalType":"address"}],"stateMutability":"view"},{"type":"function","name":"Fheos","inputs":[],"outputs":[{"name":"","type":"address","internalType":"address"}],"stateMutability":"view"},{"type":"function","name":"Gateway","inputs":[],"outputs":[{"name":"","type":"address","internalType":"address"}],"stateMutability":"view"},{"type":"function","name":"InputVerifier","inputs":[],"outputs":[{"name":"","type":"address","internalType":"address"}],"stateMutability":"view"}],"bytecode":{"object":"0x6101bf61004d600b8282823980515f1a6073146041577f4e487b71000000000000000000000000000000000000000000000000000000005f525f60045260245ffd5b305f52607381538281f3fe7300000000000000000000000000000000000000003014608060405260043610610055575f3560e01c806313d8d464146100595780633d49c3841461007757806346e9ab22146100955780637af53532146100b3575b5f5ffd5b6100616100d1565b60405161006e9190610170565b60405180910390f35b61007f6100e9565b60405161008c9190610170565b60405180910390f35b61009d610101565b6040516100aa9190610170565b60405180910390f35b6100bb610119565b6040516100c89190610170565b60405180910390f35b73020000000000000000000000000000000000008081565b73020000000000000000000000000000000000008281565b73020000000000000000000000000000000000008381565b73020000000000000000000000000000000000008181565b5f73ffffffffffffffffffffffffffffffffffffffff82169050919050565b5f61015a82610131565b9050919050565b61016a81610150565b82525050565b5f6020820190506101835f830184610161565b9291505056fea264697066735822122022db0af1303564ae89eeec67f92c96579de05d81b02cf403d1bb76cf85642d5d64736f6c634300081b0033","linkReferences":{}},"methodIdentifiers":{"ACL()":"7af53532","Fheos()":"13d8d464","Gateway()":"46e9ab22","InputVerifier()":"3d49c384"},"id":6}